:020000040800F2
:1000000000500020950B0008AD0A0008B50A000852
:10001000BD0A0008C50A0008CD0A0008000000005B
:10002000000000000000000000000000D50A0008E9
:10003000E10A000800000000ED0A0008F90A0008C3
:10004000DD0B0008DD0B0008DD0B0008DD0B0008F0
:10005000DD0B0008DD0B0008DD0B0008DD0B0008E0
:10006000DD0B0008DD0B0008DD0B0008DD0B0008D0
:10007000DD0B0008DD0B0008DD0B0008DD0B0008C0
:10008000DD0B0008DD0B0008DD0B0008DD0B0008B0
:10009000DD0B0008DD0B0008DD0B0008DD0B0008A0
:1000A000DD0B0008DD0B0008DD0B0008DD0B000890
:1000B000DD0B0008DD0B0008DD0B0008050B000858
:1000C000110B0008DD0B0008DD0B0008DD0B00083C
:1000D000DD0B0008DD0B0008DD0B0008DD0B000860
:1000E000DD0B0008DD0B0008DD0B00080000000040
:1000F0000000000000000000000000000000000000
:0C01000000000000000000005FF808F1A3
:10010C0010B5054C237833B9044B13B10448AFF345
:10011C0000800123237010BD54000020000000005B
:10012C001027000808B5034B1BB103490348AFF374
:10013C00008008BD000000005800002010270008B7
:10014C00034613F8012B002AFBD1181A013870470B
:10015C0080B485B000AF78607B6803F00703FB6068
:10016C000C4BDB68BB60BA684FF6FF031340BB60F7
:10017C00FB681A02BB68134343F0BF6343F40033BC
:10018C00BB60044ABB68D36000BF1437BD4680BC5B
:10019C00704700BF00ED00E080B400AF044BDB689B
:1001AC001B0A03F007031846BD4680BC704700BF0E
:1001BC0000ED00E080B483B000AF03463960FB7102
:1001CC0097F90730002B0ADB3B68DAB20C4997F938
:1001DC0007301201D2B20B4483F800230AE03B68CB
:1001EC00DAB20849FB7903F00F03043B1201D2B2D7
:1001FC000B441A7600BF0C37BD4680BC704700BF5D
:10020C0000E100E000ED00E080B489B000AFF860E0
:10021C00B9607A60FB6803F00703FB61FB69C3F10B
:10022C000703042B28BF0423BB61FB690433062B93
:10023C0002D9FB69033B00E000237B614FF0FF32E6
:10024C00BB6902FA03F3DA43BB681A407B699A4034
:10025C004FF0FF317B6901FA03F3D9437B680B4004
:10026C00134318462437BD4680BC704780B400AF9A
:10027C00044B1B68034A43F48033136000BFBD4634
:10028C0080BC70470010024080B400AF064B1B6866
:10029C0003F40033B3F5003F0CBF01230023DBB2A2
:1002AC001846BD4680BC70470010024080B483B035
:1002BC0000AF7860064B5B6823F0030204497B684F
:1002CC0013434B6000BF0C37BD4680BC704700BF6A
:1002DC000010024080B400AF034B5B6803F00C03CA
:1002EC001846BD4680BC70470010024080B483B0F5
:1002FC0000AF7860064B5B6823F0F00204497B6822
:10030C0013434B6000BF0C37BD4680BC704700BF29
:10031C000010024080B483B000AF7860064B5B687D
:10032C0023F4E06204497B6813434B6000BF0C3735
:10033C00BD4680BC704700BF0010024080B483B043
:10034C0000AF7860064B5B6823F4605204497B680D
:10035C0013434B6000BF0C37BD4680BC704700BFD9
:10036C000010024080B400AF044B1B68034A43F0FA
:10037C008073136000BFBD4680BC70470010024004
:10038C0080B400AF064B1B6803F00073B3F1007F21
:10039C000CBF01230023DBB21846BD4680BC70475E
:1003AC000010024080B483B000AF78603960084B15
:1003BC005B6823F47C127B6803F440313B680B438D
:1003CC00034913434B6000BF0C37BD4680BC7047DC
:1003DC000010024080B485B000AF7860084BDA6939
:1003EC0007497B681343CB61054BDA697B68134083
:1003FC00FB60FB6800BF1437BD4680BC704700BF74
:10040C000010024080B485B000AF7860084B9A6948
:10041C0007497B6813438B61054B9A697B681340D2
:10042C00FB60FB6800BF1437BD4680BC704700BF43
:10043C000010024080B483B000AF7860064B1B689C
:10044C0023F0070204497B6813430B6000BF0C3791
:10045C00BD4680BC704700BF0020024080B400AF96
:10046C00034B1B6803F007031846BD4680BC70475E
:10047C000020024080B483B000AF78607B68DB68FA
:10048C0043F400527B68DA6000BF0C37BD4680BC79
:10049C00704780B483B000AF78607B681B6923F42D
:1004AC0090427B681A617B685B6923F02A027B6847
:1004BC005A6100BF0C37BD4680BC704780B483B016
:1004CC0000AF786039607B689B68DA433B681B0A35
:1004DC0013409BB2002B0CBF01230023DBB2184648
:1004EC000C37BD4680BC704780B483B000AF7860D9
:1004FC0039603B681B0A9AB27B681A6100BF0C37E3
:10050C00BD4680BC704780B483B000AF7860396062
:10051C003B681B0A9AB27B685A6100BF0C37BD4618
:10052C0080BC704780B485B000AF786039607B6860
:10053C00DB68FB603B681B0A9BB2BB60FA68BB685C
:10054C0013401A04FB68D943BB680B401A437B6801
:10055C001A6100BF1437BD4680BC704780B400AF31
:10056C00054B5B6823F0E063034A43F00073536070
:10057C0000BFBD4680BC70470000014080B5ADF5A2
:10058C00047D00AF0120FFF73DFF4FF08050FFF7D7
:10059C0021FF0320FFF7DCFDFFF7FEFD03460022E1
:1005AC000F211846FFF730FE034619464FF0FF3077
:1005BC00FFF700FEFFF7D2FF00F0D6F800F0C0F90D
:1005CC0000F010F900F066F900F084FE00F0A4FED3
:1005DC005C495D48FFF797FF0123C7F80C3207F51C
:1005EC000473A3F5867300221A600433FB220021E6
:1005FC00184601F0F7FB07F50473A3F5037300220B
:10060C001A600433FC220021184601F0EBFB07F5BD
:10061C000473A3F5867340221A700123C7F80832BD
:10062C0017E0D7F80832013B07F50472A2F5867281
:10063C00D35C0133D9B207F50473A3F58672D7F8EE
:10064C00083213440A461A70D7F808320133C7F837
:10065C000832D7F80832FF2BE3DD3C4801F06EFB83
:10066C0040F6B83000F004FE44F240013848FFF781
:10067C0025FF0346002B26D0391D42F210730122B0
:10068C00682000F029FF07F50473A3F503731B78AA
:10069C001946304801F052FB07F582714FF47A731A
:1006AC001422682000F06AFE0346002B07D025496F
:1006BC002548FFF737FF284801F040FB3AE0274870
:1006CC0001F03CFB36E0D7F80C12254801F036FB64
:1006DC00D7F80C32DAB2391D42F21073552001F002
:1006EC0031F80346002B20D00023C7F8043212E067
:1006FC0007F50473A3F50372D7F8043213441B787F
:10070C001A46D7F80412174801F018FBD7F8043230
:10071C000133C7F80432D7F80422D7F80C329A42C6
:10072C00E6DB08490848FFF7FDFED7F80C32013329
:10073C00C7F80C3200F06CF940F6B83000F098FDB8
:10074C0092E700BF20002004001001402827000879
:10075C00000801403C2700084C27000858270008D7
:10076C006C2700087827000880B500AF0220FFF73F
:10077C0061FE00BFFFF772FE0346022BFAD1FFF7B2
:10078C0075FD00BFFFF780FD0346012BFAD14FF436
:10079C00E0114FF48030FFF705FEFFF7E3FD00BFDB
:1007AC00FFF7EEFD0346012BFAD10020FFF79EFD6B
:1007BC004FF48060FFF7AEFD0020FFF7BFFD022075
:1007CC00FFF774FD00BFFFF785FD0346082BFAD138
:1007DC00034800F03FFD024800F06EFD00BF80BDF5
:1007EC0000A24A0480B58CB000AF07F114030022BC
:1007FC001A605A609A60DA601A615A619A613B46D3
:10080C0000221A605A609A60DA601A614FF48040D4
:10081C00FFF7F8FD0420FFF7F5FD1A4B3B600923A9
:10082C007B600323BB600023FB603B4619461648E4
:10083C0000F087FA154B3B6004237B603B4619465E
:10084C00114800F07EFA4FF4E1337B610023BB6169
:10085C000023FB6100233B620C237B620023BB6201
:10086C000023FB6207F114031946094800F078FCD9
:10087C000748FFF70EFE0648FFF7FCFD00BF3037B8
:10088C00BD4680BD020002040008014004000404BF
:10089C000038014080B58CB000AF07F11403002282
:1008AC001A605A609A60DA601A615A619A613B4622
:1008BC0000221A605A609A60DA601A614FF40030B4
:1008CC00FFF788FD0420FFF79DFD40F204433B60D9
:1008DC0009237B600323BB600023FB603B46194666
:1008EC00154800F02EFA40F608033B6004237B60A9
:1008FC003B461946104800F024FA4FF4E1337B6173
:10090C000023BB610023FB6100233B620C237B6251
:10091C000023BB620023FB6207F11403194607484E
:10092C0000F01EFC0548FFF7B4FD0448FFF7A2FDDC
:10093C0000BF3037BD4680BD000801400044004078
:10094C0080B586B000AF3B1D00221A605A609A60D9
:10095C00DA601A611020FFF755FD2020FFF752FDD9
:10096C000420FFF74FFD0820FFF74CFD24492548D4
:10097C00FFF7C9FD42F220012348FFF7C4FD42F204
:10098C0020012248FFF7BFFD48F280011E48FFF707
:10099C00ABFD1B4B7B600123BB600223FB60002380
:1009AC003B613B1D1946174800F0CBF94AF2A003F6
:1009BC007B600123BB600223FB6000233B613B1D7A
:1009CC001946114800F0BDF944F240037B60042342
:1009DC00BB603B1D19460C4800F0B3F942F22003F2
:1009EC007B600123BB600223FB6000233B613B1D4A
:1009FC001946064800F0A5F900BF1837BD4680BD62
:100A0C00200020040010014000080140000C0140AF
:100A1C0080B500AF1A4B5B691B0A03F00103194642
:100A2C00184801F08BF9164B5B695B0A03F0010364
:100A3C001946154801F082F9114B5B699B0A03F0CA
:100A4C0001031946114801F079F90D4B5B69194600
:100A5C000F4801F073F90A4B9B6919460D4801F0D8
:100A6C006DF9074B1B6819460B4801F067F9044BED
:100A7C005B681946094801F061F900BF80BD00BFF1
:100A8C00005400408C27000898270008A427000871
:100A9C00AC270008BC270008CC270008DC2700087E
:100AAC0080B400AF00BFFDE780B400AF00BFFDE72E
:100ABC0080B400AF00BFFDE780B400AF00BFFDE71E
:100ACC0080B400AF00BFFDE780B400AF00BFBD46EF
:100ADC0080BC704780B400AF00BFBD4680BC70477F
:100AEC0080B400AF00BFBD4680BC704780B400AF7F
:100AFC0000BFBD4680BC704780B500AF01F00AF85E
:100B0C0000BF80BD80B500AF01F09AF800BF80BD7A
:100B1C0080B586B000AF7860144A154BD31A7B6150
:100B2C007B693B61134B1B68002B02D1114B124AA2
:100B3C001A60104B1A687B6813443A699A4207D2C0
:100B4C0001F058F903460C221A604FF0FF3309E00C
:100B5C00084B1B68FB60074B1A687B681344054AFB
:100B6C001360FB6818461837BD4680BD0050002046
:100B7C000004000070000020C801002080B400AF09
:100B8C0000BFBD4680BC7047FFF7F8FF0B480C490F
:100B9C000C4A002302E0D458C4500433C4188C42CD
:100BAC00F9D3094A094C002301E013600432A24234
:100BBC00FBD301F025F9FFF7E1FC704700000020A2
:100BCC00540000206829000854000020C8010020AF
:100BDC00FEE790B488B000AFF860B9607A60FB684B
:100BEC001A46BB681B0E13441C462268BB687B610B
:100BFC007B6993FAA3F33B613B69B3FA83F3DBB2F2
:100C0C009B000F2101FA03F3DB431A40BB68FB6125
:100C1C00FB6993FAA3F3BB61BB69B3FA83F3DBB251
:100C2C009B00796801FA03F31343236000BF20375C
:100C3C00BD4690BC704790B488B000AFF860B96006
:100C4C007A60FB681A46BB681B0E13441C4622686C
:100C5C00BB687B617B6993FAA3F33B613B69B3FA95
:100C6C0083F3DBB29B00032101FA03F3DB431A404D
:100C7C00BB68FB61FB6993FAA3F3BB61BB69B3FA75
:100C8C0083F3DBB29B00796801FA03F3134323600F
:100C9C0000BF2037BD4690BC704790B488B000AF01
:100CAC00F860B9607A60FB681A46BB681B0E134487
:100CBC001C462268BB687B617B6993FAA3F33B619A
:100CCC003B69B3FA83F3DBB29B00042101FA03F313
:100CDC00DB431A40BB68FB61FB6993FAA3F3BB616E
:100CEC00BB69B3FA83F3DBB29B00796801FA03F3B7
:100CFC001343236000BF2037BD4690BC704780B4BF
:100D0C0087B000AFF860B9607A60FB68DA68BB68DE
:100D1C001B0ADB431A40BB681B0A7B617B6993FA95
:100D2C00A3F33B613B69B3FA83F3DBB219467B68EF
:100D3C008B401A43FB68DA6000BF1C37BD4680BC91
:100D4C00704780B588B000AF786039603B681B682D
:100D5C001B021B0C7B617B693B613B6993FAA3F320
:100D6C00FB60FB68B3FA83F3DBB2FB6144E0012266
:100D7C00FB699A407B691340002B3AD0FB69072B27
:100D8C0006D840F20112FB6902FA03F3BB6108E0DA
:100D9C00FB69083B4FF0011202FA03F343F0806346
:100DAC00BB613B685B68082B06D13B681B691A4624
:100DBC00B9697868FFF7A3FF3B685B681A46B969A5
:100DCC007868FFF706FF3B685B68012B03D03B6834
:100DDC005B68092B0DD13B689B681A46B96978682A
:100DEC00FFF729FF3B68DB681A46B9697868FFF79B
:100DFC0054FFFB690133FB617A69FB6922FA03F347
:100E0C00002BB4D1002318462037BD4680BD00000E
:100E1C0080B400AF034B5B6803F00C031846BD466F
:100E2C0080BC70470010024080B400AF034B5B687D
:100E3C0003F0F0031846BD4680BC7047001002401A
:100E4C0080B400AF034B5B6803F4E0631846BD4607
:100E5C0080BC70470010024080B400AF034B5B684D
:100E6C0003F460531846BD4680BC70470010024026
:100E7C0080B400AF034B5B6803F480331846BD4667
:100E8C0080BC70470010024080B400AF034B5B681D
:100E9C0003F470131846BD4680BC70470010024026
:100EAC0080B400AF044B5B685B0C03F00103184685
:100EBC00BD4680BC704700BF0010024080B582B0B8
:100ECC0000AF786000F020F802467B681A607B68FF
:100EDC001B68184600F03EF802467B685A607B6837
:100EEC005B68184600F04CF802467B689A607B6899
:100EFC005B68184600F058F802467B68DA6000BF61
:100F0C000837BD4680BD000080B582B000AF00231D
:100F1C007B60FFF77DFF0346082B0CD0082B0ED807
:100F2C00002B02D0042B03D009E0094B7B6009E0B5
:100F3C00074B7B6006E000F04BF8786002E0044B56
:100F4C007B6000BF7B6818460837BD4680BD00BF7C
:100F5C0000127A0080B582B000AF7860FFF764FFB2
:100F6C0003461B0903F00F03044AD35C1A467B6843
:100F7C00D34018460837BD4680BD00BF0C29000879
:100F8C0080B582B000AF7860FFF75AFF03461B0AAA
:100F9C00044AD35C1A467B68D34018460837BD46D2
:100FAC0080BD00BF1C29000880B582B000AF7860FE
:100FBC00FFF752FF0346DB0A044AD35C1A467B68F0
:100FCC00D34018460837BD4680BD00BF1C29000819
:100FDC0080B582B000AF00237B6000233B60FFF73D
:100FEC0047FF38603B68002B04D03B68B3F5803F6B
:100FFC0003D00BE00D4B7B600BE0FFF751FF03467A
:10100C0001330B4AB2FBF3F37B6002E0074B7B60CE
:10101C0000BFFFF739FF03469B0C02337A6802FBD3
:10102C0003F318460837BD4680BD00BF00093D00DC
:10103C0000127A0080B483B000AF78607B68DB6804
:10104C0003F40053B3F5005F0CBF01230023DBB2A4
:10105C0018460C37BD4680BC704780B483B000AFD7
:10106C00786039607B681B6923F440523B681A43F3
:10107C007B681A6100BF0C37BD4680BC704780B4DA
:10108C0083B000AF786039607B685B6923F4407291
:10109C003B681A437B685A6100BF0C37BD4680BC65
:1010AC007047000080B485B000AFF860B9607A601A
:1010BC00BA6813469B0013449A001A447B689B0041
:1010CC00B2FBF3F3254AA2FB03235B099BB21B0182
:1010DC0099B2BA6813469B0013449A001A447B6871
:1010EC009B00B2FBF3F21D4BA3FB02035B096420D4
:1010FC0000FB03F3D31A1B013233184AA2FB032360
:10110C005B099BB203F0F0039BB20B4499B2BA6833
:10111C0013469B0013449A001A447B689B00B2FB55
:10112C00F3F20E4BA3FB02035B09642000FB03F3F9
:10113C00D31A1B013233094AA2FB03235B099BB26E
:10114C0003F00F039BB20B449BB21A46FB689A60E8
:10115C0000BF1437BD4680BC704700BF1F85EB51E4
:10116C0080B588B000AF786039600123FB7700232D
:10117C00BB617868FFF75EFF0346002B45D17B68A7
:10118C00DB6823F4B05323F00C033A6851683A68D7
:10119C00D26811433A6812690A431A437B68DA60D1
:1011AC003B689B6819467868FFF757FF3B685B699B
:1011BC0019467868FFF763FF07F108031846FFF735
:1011CC007DFE7B68134A934202D17B69BB610CE0C4
:1011DC007B68114A934202D13B69BB6105E07B6895
:1011EC000E4A934201D13B69BB61BB69002B0CD009
:1011FC003B681B68002B08D00023FB773B681B68FF
:10120C001A46B9697868FFF74DFFFB7F18462037FF
:10121C00BD4680BD003801400044004000480040FD
:10122C0080B483B000AF786039607A683B68B2FBF9
:10123C00F3F3074A013B5360054B00229A60044BC1
:10124C0005221A6000BF0C37BD4680BC704700BF3A
:10125C0010E000E080B582B000AF78604FF47A7196
:10126C007868FFF7DDFF00BF0837BD4680BD000082
:10127C0080B485B000AF78600E4B1B68FB60FB68D8
:10128C007B68B3F1FF3F0CD07B6801337B6008E0D7
:10129C00084B1B6803F48033002B02D07B68013BA6
:1012AC007B607B68002BF3D100BF00BF1437BD46B9
:1012BC0080BC704710E000E080B483B000AF786071
:1012CC00034A7B68136000BF0C37BD4680BC704777
:1012DC000000002080B400AF0D4B9B690C4A43F01A
:1012EC00080393610B4B1B680A4A23F04C531360A1
:1012FC00084B1B68074A43F088531360054B1B6867
:10130C00044A43F04C43136000BFBD4680BC704799
:10131C0000100240000C014080B400AF154BDB699B
:10132C00144A43F40013D361134B5B68124A23F045
:10133C003F035360104B5B680F4A43F00803536044
:10134C000D4B1B6A0C4A23F0FF0313620A4B1B6AFA
:10135C00094A43F009031362074B4FF4B472DA6184
:10136C00054B1B68044A43F00103136000BFBD46E4
:10137C0080BC7047001002400054004080B586B01D
:10138C0000AFB9607B600346FB731346BB7300234D
:10139C007B610023FB7408E07B6901337B617A6914
:1013AC007B689A4201D900238DE0494B9B6903F07D
:1013BC000203002BF0D1464B1B68454A23F4006313
:1013CC001360434B1B68424A43F48073136008E07C
:1013DC007B6901337B617A697B689A4201D900236E
:1013EC0071E03B4B5B6903F00103002BF0D0002351
:1013FC007B61FB7B364A5B0013610BE07B6901333D
:10140C007B617A697B689A4204D9324800F096FC79
:10141C00002358E02E4B5B6903F00203002BEDD048
:10142C0000237B612A4B5B69294B9B6931E07B690B
:10143C0001337B617A697B689A4201D9002342E0CF
:10144C00234B5B6903F08003002BF0D000237B61FE
:10145C00FB7CBA6813441A781D4B1A61FB7C013370
:10146C00FB74BB7B013BBB73BB7B002B11D0184BBC
:10147C005B6903F00403002B0BD0FB7CBA681344AC
:10148C001A78134B1A61FB7C0133FB74BB7B013B59
:10149C00BB73BB7B002BD3D108E07B6901337B6131
:1014AC007A697B689A4201D900230CE0084B5B698E
:1014BC0003F00403002BF0D0054B1B68044A43F4E3
:1014CC0000731360012318461837BD4680BD00BF5A
:1014DC0000540040EC27000880B586B000AFB9601E
:1014EC007B600346FB731346BB7300237B610023B5
:1014FC00FB74BB7BBB7408E07B6901337B617A694D
:10150C007B689A4201D9002304E1844B5B6903F0A8
:10151C000203002BF0D100237B61804B1B687F4AB8
:10152C0023F4006313607D4B1B687C4A43F4806397
:10153C0013607A4B1B68794A43F48073136008E09C
:10154C007B6901337B617A697B689A4201D90023FC
:10155C00E0E0724B5B6903F00103002BF0D0002339
:10156C007B61FB7B6D4A5B0013610BE07B69013394
:10157C007B617A697B689A4204D9694800F0DEFB8A
:10158C000023C7E0654B5B6903F00203002BEDD031
:10159C0000237B61614B5B69604B9B695F4B06224F
:1015AC001A615E4B5B6903F40073002B0FD05D482E
:1015BC0000F0C4FB0BE07B6901337B617A697B68CB
:1015CC009A4204D9584800F0B9FB0023A2E0534BCF
:1015DC005B6903F08003002BEDD000237B614F4B44
:1015EC005B6903F40073002B02D0504800F0A6FB9B
:1015FC004A4B1B68494A43F48073136008E07B69CB
:10160C0001337B617A697B689A4201D9002381E0BE
:10161C00424B5B6903F00103002BF0D000237B618C
:10162C003E4B5B6903F40073002B02D0404800F082
:10163C0085FBFB7B5B0043F00102384B1A61374B97
:10164C005B6903F40073002B0FD03A4800F076FB73
:10165C000BE07B6901337B617A697B689A4204D920
:10166C00354800F06BFB002354E02C4B5B6903F016
:10167C000203002BEDD000237B61284B5B6903F444
:10168C000073002B02D02D4800F058FBBB7C012BC3
:10169C003CD1224B1B68214A23F48063136072B641
:1016AC0000BF1E4B5B691D4B9B691C4B1B681B4A87
:1016BC0043F40073136062B600BF27E0BB7C032BBE
:1016CC0024D8BB7C012B21D10BE07B6901337B61DE
:1016DC007A697B689A4204D9194800F02FFB0023E1
:1016EC0018E00E4B5B6903F04003002BEDD0002398
:1016FC007B610A4B1969FB7CBA681344CAB21A7035
:10170C00FB7C0133FB74BB7C013BBB74BB7C002BAF
:10171C00D4D1012318461837BD4680BD0054004073
:10172C00FC2700080C2800081828000824280008AA
:10173C00302800083C2800084828000858280008D1
:10174C006428000880B586B000AFB9607B600346A2
:10175C00FB731346BB7300237B610023FB74BB7BC1
:10176C00BB7408E07B6901337B617A697B689A42C0
:10177C0001D90023C3E18E4B5B6903F00203002BFC
:10178C00F0D100237B618A4B1B68894A23F40063E8
:10179C001360874B1B68864A43F480631360844B49
:1017AC001B68834A43F48073136008E07B69013340
:1017BC007B617A697B689A4201D900239FE17C4B5B
:1017CC005B6903F00103002BF0D000237B61FB7BF2
:1017DC005B0043F00102764B1A610BE07B6901332D
:1017EC007B617A697B689A4204D9724800F0A6FA48
:1017FC00002384E16E4B5B6903F00203002BEDD0F8
:10180C0000237B616A4B5B6903F48073002B02D06D
:10181C00694800F093FABB7C002B0BD1644B5B69DD
:10182C00634B9B69624B1B68614A43F40073136002
:10183C00002364E1BB7C012B25D15D4B1B685C4A0A
:10184C0023F4806313605A4B5B6903F48073002BA1
:10185C0002D05A4800F072FA72B600BF544B5B6962
:10186C00534B9B69524B1B68514A43F400731360F2
:10187C004F4B5B6903F48073002B02D0504800F08F
:10188C005DFA62B620E0BB7C022B13D1484B1B687F
:10189C00474A43F40063136072B600BF444B5B6964
:1018AC00434B9B69424B1B68414A23F48063136092
:1018BC0062B609E03E4B1B683D4A43F480631360FB
:1018CC003B4B5B693A4B9B6914E1BB7C032B00F2ED
:1018DC00E080BB7C012B22D10BE07B6901337B6167
:1018EC007A697B689A4204D9364800F027FA0023BB
:1018FC0005E12F4B5B6903F04003002BEDD0002377
:10190C007B612B4B1969FB7CBA681344CAB21A7001
:10191C00FB7C0133FB74BB7C013BBB74EAE0BB7CFE
:10192C00022B55D10BE07B6901337B617A697B68B3
:10193C009A4204D9244800F001FA0023DFE01C4B42
:10194C005B6903F00403002BEDD000237B6172B6BE
:10195C0000BF174B1B68164A43F400731360144BFB
:10196C001969FB7CBA681344CAB21A70FB7C013348
:10197C00FB74BB7C013BBB7462B600BF0C4B19699A
:10198C00FB7CBA681344CAB21A70FB7C0133FB743B
:10199C00BB7C013BBB74ADE07B6901337B617A6935
:1019AC007B689A4214D9094800F0C8F90023A6E0D4
:1019BC0000540040EC2700087C2800088828000808
:1019CC009428000864280008A0280008B4280008FF
:1019DC004D4B5B6903F00403002BDDD000237B61CE
:1019EC00494B1B68484A23F48063136072B600BFEE
:1019FC00454B1969FB7CBA681344CAB21A70FB7C5C
:101A0C000133FB74BB7C013BBB740BE07B69013382
:101A1C007B617A697B689A4204D93C4800F08EF964
:101A2C0000236CE0384B5B6903F00403002BEDD012
:101A3C0000237B61344B1B68334A43F400731360FF
:101A4C00314B1969FB7CBA681344CAB21A70FB7C1F
:101A5C000133FB74BB7C013BBB7462B600BF2A4BE9
:101A6C001969FB7CBA681344CAB21A70FB7C013347
:101A7C00FB74BB7C013BBB743CE07B6901337B6139
:101A8C007A697B689A4204D9214800F057F90023FF
:101A9C0035E01D4B5B6903F04003002BEDD00023B8
:101AAC007B61194B1969FB7CBA681344CAB21A7072
:101ABC00FB7C0133FB74BB7C013BBB74124B5B693D
:101ACC0003F00403002B15D0BB7C032B05D10E4B6C
:101ADC001B680D4A23F4806313600B4B1969FB7C64
:101AEC00BA681344CAB21A70FB7C0133FB74BB7C1A
:101AFC00013BBB74BB7C002B7FF4E7AE0123184683
:101B0C001837BD4680BD00BF00540040C8280008EF
:101B1C00E828000890B400AF434B5B6903F0010365
:101B2C00002B07D0414B1B785B0043F001023E4B6E
:101B3C001A6174E03C4B5B6903F00203002B27D065
:101B4C00394B5B69384B9B69394B1B78DBB2012BEA
:101B5C000CD1354B1B68344A23F480631360324B31
:101B6C001B68314A43F40073136058E0304B1B7808
:101B7C00DBB2022B53D12C4B1B682B4A23F4806312
:101B8C001360294B1B68284A43F40063136046E03A
:101B9C00254B5B6903F04003002B35D0224B1869B1
:101BAC00244B1A68244B1B78DBB2591CCCB222494B
:101BBC000C701344C2B21A701D4B1B78DBB2013B84
:101BCC00DAB21B4B1A701A4B1B78DBB2022B06D104
:101BDC00154B1B68144A23F4806313601FE0144BED
:101BEC001B78DBB2012B06D10F4B1B680E4A43F45A
:101BFC000073136013E00E4B1B78DBB2002B0ED17D
:101C0C000E4B01221A700AE0074B5B6903F01003BC
:101C1C00002B04D0044B5B69084B01221A7000BFE7
:101C2C00BD4690BC704700BF005400407F000020B0
:101C3C007C000020780000207D0000207E00002029
:101C4C0080B500AF084B00221A70084B1B68074A7E
:101C5C0043F400731360064B00221A70054800F021
:101C6C006DF800BF80BD00BF7E0000200054004016
:101C7C0074000020FC28000880B483B000AF7860AA
:101C8C007B681B6803F04003402B0CBF012300232F
:101C9C00DBB218460C37BD4680BC704780B483B0AD
:101CAC0000AF78607B681B6803F08003802B0CBF4F
:101CBC0001230023DBB218460C37BD4680BC7047AD
:101CCC0080B483B000AF78600B46FB70FA787B6809
:101CDC005A6000BF0C37BD4680BC704780B584B0DD
:101CEC0000AF78607868FEF72BFAB8600023FB60D1
:101CFC0011E000BF1048FFF7D1FF0346002BF9D0CD
:101D0C007A68FB6813441B7819460B48FFF7D8FF19
:101D1C00FB680133FB60FA68BB689A42E9D300BFE9
:101D2C000548FFF7A9FF0346002BF9D000BF00BF01
:101D3C001037BD4680BD00BF004400400FB480B5D5
:101D4C00A2B000AF07F194037B6007F108007B6839
:101D5C00D7F89020802100F037F807F108031846D7
:101D6C00FFF7BCFF00BF8837BD46BDE8804004B01C
:101D7C00704730B51446002C05461A469BB005DA60
:101D8C008B2303604FF0FF301BB030BD4FF4027358
:101D9C00ADF80C300CBF234604F1FF3302930593CE
:101DAC004FF6FF7300910491ADF80E3069461E9BFF
:101DBC0000F09EF9431CBCBF8B232B60002CE3D09E
:101DCC000022009B1A70DFE707B5009313460A4602
:101DDC00014603480068FFF7CCFF03B05DF804FB35
:101DEC000400002003460244934200D1704703F8DC
:101DFC00011BF9E7014B1868704700BF0400002075
:101E0C0070B500260C4D0D4C641BA410A64209D1D4
:101E1C0000F078FC00260A4D0A4C641BA410A64264
:101E2C0005D170BD55F8043B98470136EEE755F8DF
:101E3C00043B98470136F2E7602900086029000846
:101E4C0060290008642900087047704738B50546BA
:101E5C00002940D051F8043C0C1F002BB8BFE418EB
:101E6C0000F0DEF81C4A136833B96360146028462E
:101E7C00BDE8384000F0DAB8A34208D92068211830
:101E8C008B4201BF19685B6809182160EDE71A469F
:101E9C005B680BB1A342FAD911685018A0420BD160
:101EAC0020680144501883421160E0D118685B68C7
:101EBC00084410605360DAE702D90C232B60D6E794
:101ECC00206821188B4201BF19685B6809182160D2
:101EDC0063605460CBE738BDC401002070B50F4E71
:101EEC000C463168054611B900F0AAFB306021465A
:101EFC00284600F0A5FB431C03D14FF0FF342046CD
:101F0C0070BDC41C24F00304A042F8D0211A28464A
:101F1C0000F096FB0130F2D1EFE700BFC0010020CA
:101F2C002DE9F843CD1C25F0030508350C2D38BFE1
:101F3C000C25002D064601DBA94204D90C23336085
:101F4C000020BDE8F883DFF8D48000F069F8D8F8F9
:101F5C0000301C4644BB29463046FFF7BFFF431CEC
:101F6C00044658D1D8F800402746002F43D1002C06
:101F7C004BD023683946304604EB030900F060FB74
:101F8C00814542D1216830466D1A2946FFF7A6FFDC
:101F9C0001303AD023682B442360D8F800305A68BB
:101FAC0062BBC8F800700FE02268521B20D40B2AC9
:101FBC0017D96119A342256018BF5960636808BF1F
:101FCC00C8F8001062514B60304600F02FF804F155
:101FDC000B00231D20F00700C21A1CBF1B1AA350B4
:101FEC00AFE76268A3420CBFC8F800205A60EBE769
:101FFC0023466468AEE73C467F68B6E71A465B68E2
:10200C00A342FBD100235360DEE70C233046336040
:10201C0000F00CF894E70560D6E700BFC40100207F
:10202C000148FFF711BF00BFBC0100200148FFF7BA
:10203C000CBF00BFBC0100202DE9F0471F468E6885
:10204C008246BE420C4690460B682DD8B1F90C2046
:10205C0012F4906F26D06569096905EB4505A3EB71
:10206C00010905EBD5757B1C4B446D109D4238BFA7
:10207C001D46530527D52946FFF752FF064660B388
:10208C004A46216900F0FAFAA38923F4906343F0DD
:10209C008003A38126614E4426603E466561A5EB14
:1020AC000905A560BE4200D93E463246414620682D
:1020BC0000F0ACFA0020A3689B1BA3602368334498
:1020CC002360BDE8F0872A4600F0E6FA06460028B1
:1020DC00E0D150462169FFF7B9FE0C23CAF8003055
:1020EC00A3894FF0FF3043F04003A381E9E70000E0
:1020FC002DE9F04F98468B8907461B060D46144672
:10210C009DB010D50B6973B94021FFF709FF28600A
:10211C00286130B90C233B604FF0FF301DB0BDE897
:10212C00F08F40236B610023099320238DF8293015
:10213C0030234FF00109CDF80C80DFF898818DF831
:10214C002A3023469A4613F8012B0AB1252AF9D1D5
:10215C00BAEB040B0BD05B46224629463846FFF7F8
:10216C006BFF013000F0A780099A5A4409929AF843
:10217C000030002B00F09F8000234FF0FF32CDE9A0
:10218C0005230AF1010A049307938DF853301A932F
:10219C005446052214F8011B4E4800F061FA049ACB
:1021AC00D8B9D00644BF20238DF85330110744BF53
:1021BC002B238DF853309AF800302A2B15D0544627
:1021CC0000204FF00A0C079A214611F8013B303BD6
:1021DC00092B4BD9B0B1079214E0A0EB080309FA14
:1021EC0003F31343A2460493D2E7039B191D1B6808
:1021FC000391002BBBBF5B4242F002020793079393
:10220C00B8BF049223782E2B0AD163782A2B32D1B3
:10221C00039B02341A1D1B68039243EAE373059374
:10222C00DFF8B4A003225046217800F019FA38B137
:10223C004022049BA0EB0A00824013430134049318
:10224C0014F8011B062225488DF8281000F008FA16
:10225C00002836D0224B1BBB039B073323F007030C
:10226C0008330393099B334409936AE70C46012016
:10227C000CFB0232A8E700234FF00A0C194601347C
:10228C000593204610F8012B303A092A03D9002B6C
:10229C00C6D00591C4E7044601230CFB0121F0E7ED
:1022AC0003AB00932A4638460E4B04A9AFF30080CB
:1022BC00421C0646D6D1AB895B063FF52DAF09987B
:1022CC002CE703AB00932A463846064B04A900F0D2
:1022DC007DF8EDE7242900082A2900082E2900089A
:1022EC0000000000452000082DE9F04716469846EE
:1022FC008A680B6907469342B8BF1346336091F85E
:10230C0043200C46DDF820900AB10133336023687A
:10231C00990642BF336802333360256815F0060511
:10232C0006D104F1190AE36832689B1AAB422BDC24
:10233C0094F843302268003B18BF0123920630D436
:10234C004146384604F14302C847013023D0236884
:10235C00226903F00603042B14BF002533684FF0E9
:10236C00000608BFE56804F11A0408BFED1A54F81A
:10237C00123C08BF25EAE5759342C4BF9B1AED18C1
:10238C00B5421AD1002008E0012352464146384696
:10239C00C847013003D14FF0FF30BDE8F08701355D
:1023AC00C1E73020E11881F843005A1C94F845101D
:1023BC002244023382F84310C2E7012322464146ED
:1023CC003846C8470130E6D00136D9E72DE9FF473A
:1023DC000F7E9146782F80460C469A460C9E01F152
:1023EC00430207D8622F0AD8002F00F0D380582F51
:1023FC0000F0BA8004F1420684F842703AE0A7F18A
:10240C006303152BF6D801A151F823F071240008B1
:10241C008524000801240008012400080124000878
:10242C000124000885240008012400080124000868
:10243C00012400080124000887250008AF240008A7
:10244C00412500080124000801240008A9250008E2
:10245C0001240008AF24000801240008012400080E
:10246C004925000833681A1D1B68326004F14206C6
:10247C0084F8423001239EE033682068191D3160D6
:10248C00060601D51D6803E04506FBD5B3F90050DF
:10249C00002D03DA2D236D4284F843300A2359486A
:1024AC0011E021683368080653F8045B02D449062E
:1024BC0048BFADB26F2F336014BF0A2308235148B5
:1024CC00002184F843106668002EA8BF2168A6601E
:1024DC00A4BF21F0040121600DB9002E4BD016468B
:1024EC00B5FBF3F103FB1157C75D06F8017D2F46D1
:1024FC00BB420D46F4D9082B0BD12368DF0708D556
:10250C00236961689942DEBF302306F8013C06F16D
:10251C00FF36921B22614B4621464046CDF800A067
:10252C0003AAFFF7E1FE01304AD14FF0FF3004B0AF
:10253C00BDE8F087236843F02003236078273248F6
:10254C0084F84570236831681F0651F8045B02D487
:10255C005F0648BFADB23160D90744BF43F02003DA
:10256C0023601DB11023ABE72648E9E7236823F06D
:10257C0020032360F6E71646BDE733682568181D6F
:10258C00616930602E061B6801D5196002E068068F
:10259C00FBD51980002316462361BCE73368002164
:1025AC001A1D32601E686268304600F059F808B196
:1025BC00801B606063682361002384F84330AAE7C2
:1025CC003246494640462369D0470130ADD0236896
:1025DC009B0713D4E068039B9842B8BF1846A6E744
:1025EC000123324649464046D04701309DD0013543
:1025FC00E36803995B1AAB42F2DCEBE7002504F1CC
:10260C001906F5E73529000846290008884210B557
:10261C0001EB020402D98442234607D8431EA1428F
:10262C0008D011F8012B03F8012FF8E701460244FA
:10263C008A4200D110BD13F8014D02F8014DF7E7A5
:10264C0038B50023054D044608462B60FEF760FAAA
:10265C00431C02D12B6803B1236038BDB8010020A4
:10266C00034610B5C9B202449342184601D100206A
:10267C0003E0047801338C42F6D110BD0A44914238
:10268C0000F1FF3300D1704710B511F8014B9142A6
:10269C0003F8014FF9D110BD2DE9F04180461546E4
:1026AC000C4621B91146BDE8F041FFF739BC2AB9F7
:1026BC00FFF7CCFB00242046BDE8F08100F01AF8AF
:1026CC008542064602D8B5EB500FF4D82946404651
:1026DC00FFF726FC07460028ECD0B5422A462146D7
:1026EC0028BF3246FFF7CAFF21464046FFF7AEFB34
:1026FC003C46E0E751F8043C181F002BBCBF0B58BC
:10270C00C0187047F8B500BFF8BC08BC9E467047AF
:0C271C00F8B500BFF8BC08BC9E46704732
:102728006D61737465722D66313033633874360D9C
:102738000A000000646174613D3078253032580D1C
:102748000A0000007472616E73206F6B0D0A00003E
:102758007472616E73206661696C202121210D0AF3
:1027680000000000636F756E743D25640D0A00005B
:1027780072785F6461746125643D30782530325821
:102788000D0A0000626572723D25640D0A000000A2
:1027980061726C6F3D25640D0A00000061663D257D
:1027A800640D0A007372313D3078253034580D0AB3
:1027B800000000007372323D3078253034580D0A1D
:1027C800000000006372313D307825303034580DF8
:1027D8000A0000006372323D3078253034580D0A03
:1027E8000D0A0000414444522074696D656F757488
:1027F8000D0A0000414444522074696D656F757478
:10280800310D0A0061726C6F20320D0A0000000061
:102818006572726F72207478650D0A0061726C6F50
:1028280020330D0A0000000061726C6F20340D0A1D
:102838000000000061726C6F20350D0A0000000076
:10284800414444522074696D656F7574320D0A00F5
:1028580061726C6F20360D0A0000000077616974A0
:1028680020727820312062797465206661696C0D68
:102878000A0000006265727220310D0A0000000033
:102888006265727220320D0A000000006265727281
:1028980020330D0A0000000062746620322062793D
:1028A8007465206661696C0D0A0000006274662018
:1028B800332062797465206661696C0D0A00000036
:1028C80062746620666C6167206C61737420696E3F
:1028D80020332062797465206661696C0D0A0000F6
:1028E80072786E65206661696C203E203362797467
:1028F800650D0A006572726F722068616E646C659E
:10290800720D0A000000000000000000010203042C
:10291800060708090000000001020304232D302BDC
:102928002000686C4C0065666745464700303132C8
:10293800333435363738394142434445460030311F
:10294800323334353637383961626364656600007E
:08295800F4D7FF7F010000002D
:042960003101000839
:042964000D01000859
:102968000024F4000800002000000000800000207F
:10297800E8000020500100200000000000000000D6
:10298800000000000000000000000000000000003F
:10299800000000000000000000000000000000002F
:1029A800000000000000000000000000000000001F
:0429B800000000001B
:0400000508000B954F
:00000001FF
