:020000040800F2
:1000000000500020A10C0008C50B0008CD0B000813
:10001000D50B0008DD0B0008E50B00080000000010
:10002000000000000000000000000000ED0B0008D0
:10003000F90B000800000000050C0008110C000876
:10004000E90C0008E90C0008E90C0008E90C0008BC
:10005000E90C0008E90C0008E90C0008E90C0008AC
:10006000E90C0008E90C0008E90C0008E90C00089C
:10007000E90C0008E90C0008E90C0008E90C00088C
:10008000E90C0008E90C0008E90C0008E90C00087C
:10009000E90C0008E90C0008E90C0008E90C00086C
:1000A000E90C0008E90C0008E90C0008E90C00085C
:1000B000E90C0008E90C0008E90C0008DD0900085B
:1000C0001D0C0008E90C0008E90C0008E90C000808
:1000D000E90C0008E90C0008E90C0008E90C00082C
:1000E000E90C0008E90C0008E90C00080000000019
:1000F0000000000000000000000000000000000000
:0C01000000000000000000005FF808F1A3
:10010C0010B5054C237833B9044B13B10448AFF345
:10011C0000800123237010BD54000020000000005B
:10012C00701D000808B5034B1BB103490348AFF31E
:10013C00008008BD0000000058000020701D000861
:10014C00034613F8012B002AFBD1181A013870470B
:10015C0080B485B000AF78607B6803F00703FB6068
:10016C000C4BDB68BB60BA684FF6FF031340BB60F7
:10017C00FB681A02BB68134343F0BF6343F40033BC
:10018C00BB60044ABB68D36000BF1437BD4680BC5B
:10019C00704700BF00ED00E080B400AF044BDB689B
:1001AC001B0A03F007031846BD4680BC704700BF0E
:1001BC0000ED00E080B483B000AF0346FB7197F90B
:1001CC000730002B0BDBFB7903F01F02064997F974
:1001DC0007305B09012000FA02F241F8232000BF2E
:1001EC000C37BD4680BC704700E100E080B483B0A2
:1001FC0000AF03463960FB7197F90730002B0ADB1F
:10020C003B68DAB20C4997F907301201D2B20B44B1
:10021C0083F800230AE03B68DAB20849FB7903F063
:10022C000F03043B1201D2B20B441A7600BF0C37F9
:10023C00BD4680BC704700BF00E100E000ED00E06F
:10024C0080B489B000AFF860B9607A60FB6803F0E5
:10025C000703FB61FB69C3F10703042B28BF0423CD
:10026C00BB61FB690433062B02D9FB69033B00E03D
:10027C0000237B614FF0FF32BB6902FA03F3DA43D0
:10028C00BB681A407B699A404FF0FF317B6901FAD9
:10029C0003F3D9437B680B40134318462437BD4600
:1002AC0080BC704780B400AF044B1B68034A43F01A
:1002BC000103136000BFBD4680BC704700100240B4
:1002CC0080B400AF064B1B6803F00203022B0CBF7B
:1002DC0001230023DBB21846BD4680BC704700BF2B
:1002EC000010024080B483B000AF7860064B1B68EE
:1002FC0023F0F8027B68DB00034913430B6000BF5B
:10030C000C37BD4680BC70470010024080B483B0EF
:10031C0000AF7860064B5B6823F0030204497B68EE
:10032C0013434B6000BF0C37BD4680BC704700BF09
:10033C000010024080B400AF034B5B6803F00C0369
:10034C001846BD4680BC70470010024080B483B094
:10035C0000AF7860064B5B6823F0F00204497B68C1
:10036C0013434B6000BF0C37BD4680BC704700BFC9
:10037C000010024080B483B000AF7860064B5B681D
:10038C0023F4E06204497B6813434B6000BF0C37D5
:10039C00BD4680BC704700BF0010024080B483B0E3
:1003AC0000AF7860064B5B6823F4605204497B68AD
:1003BC0013434B6000BF0C37BD4680BC704700BF79
:1003CC000010024080B400AF044B1B68034A43F09A
:1003DC008073136000BFBD4680BC704700100240A4
:1003EC0080B400AF064B1B6803F00073B3F1007FC1
:1003FC000CBF01230023DBB21846BD4680BC7047FE
:10040C000010024080B483B000AF78603960084BB4
:10041C005B6823F47C127B6803F440313B680B432C
:10042C00034913434B6000BF0C37BD4680BC70477B
:10043C000010024080B485B000AF7860084BDA69D8
:10044C0007497B681343CB61054BDA697B68134022
:10045C00FB60FB6800BF1437BD4680BC704700BF13
:10046C000010024080B485B000AF7860084B9A69E8
:10047C0007497B6813438B61054B9A697B68134072
:10048C00FB60FB6800BF1437BD4680BC704700BFE3
:10049C000010024080B483B000AF7860064B1B683C
:1004AC0023F0070204497B6813430B6000BF0C3731
:1004BC00BD4680BC704700BF0020024080B400AF36
:1004CC00034B1B6803F007031846BD4680BC7047FE
:1004DC000020024080B483B000AF78607B68DB689A
:1004EC0043F400527B68DA6000BF0C37BD4680BC19
:1004FC00704780B483B000AF78607B681B6923F4CD
:10050C0090427B681A617B685B6923F02A027B68E6
:10051C005A6100BF0C37BD4680BC704780B483B0B5
:10052C0000AF78607B681B6803F04003402B0CBF66
:10053C0001230023DBB218460C37BD4680BC704744
:10054C0080B483B000AF78607B681B6803F08003D5
:10055C00802B0CBF01230023DBB218460C37BD46A1
:10056C0080BC704780B483B000AF78600B46FB70E2
:10057C00FA787B685A6000BF0C37BD4680BC704768
:10058C0080B483B000AF786039603B681B0A9AB2C4
:10059C007B681A6100BF0C37BD4680BC704780B4C5
:1005AC0083B000AF786039603B681B0A9AB27B68F5
:1005BC005A6100BF0C37BD4680BC704780B485B013
:1005CC0000AF786039607B68DB68FB603B681B0AB6
:1005DC009BB2BB60FA68BB6813401A04FB68D94332
:1005EC00BB680B401A437B681A6100BF1437BD46C9
:1005FC0080BC704780B400AF054B5B6823F0E063B0
:10060C00034A43F00073536000BFBD4680BC704783
:10061C000000014080B584B000AF78607868FFF7C7
:10062C008FFDB8600023FB6011E000BF1048FFF79E
:10063C0087FF0346002BF9D07A68FB6813441B78BC
:10064C0019460B48FFF78EFFFB680133FB60FA6815
:10065C00BB689A42E9D300BF0548FFF75FFF03462A
:10066C00002BF9D000BF00BF1037BD4680BD00BFC6
:10067C00003801400FB480B5A2B000AF07F194036D
:10068C007B6007F108007B68D7F89020802100F090
:10069C00D3FE07F108031846FFF7BCFF00BF8837ED
:1006AC00BD46BDE8804004B07047000080B586B000
:1006BC0002AF0120FFF7D6FE4FF08050FFF7BAFED5
:1006CC000320FFF745FDFFF767FD034600220F21CE
:1006DC001846FFF7B5FD034619464FF0FF30FFF7FC
:1006EC0085FDFFF787FF00F045F800F0D9F800F022
:1006FC007FF800F019F900F039F919491948FFF79A
:10070C004EFF1F20FFF756FD2020FFF753FD164A22
:10071C003B1D92E8030083E803001448FFF77AFFBF
:10072C000023FB733A1D4FF47A73009301230321CA
:10073C00AA2000F0A3F90346002B0BD00849094866
:10074C00FFF73CFFFB7B19460948FFF793FFFB7B48
:10075C000133FB7341F2883000F010FEE2E700BF7A
:10076C002000200400100140A01D0008881D000876
:10077C00941D000880B500AF0020FFF78BFE00BF72
:10078C00FFF79CFE0346002BFAD11020FFF7AAFDC1
:10079C00FFF788FD00BFFFF793FD0346012BFAD14D
:1007AC0000210020FFF72EFEFFF70CFE00BFFFF725
:1007BC0017FE0346012BFAD10020FFF7C7FD0020DE
:1007CC00FFF7D8FD0020FFF7E9FD0220FFF79EFDA3
:1007DC0000BFFFF7AFFD0346082BFAD1034800F02A
:1007EC00BFFD024800F0EEFD00BF80BD00127A0094
:1007FC0080B58CB000AF07F1140300221A605A6068
:10080C009A60DA601A615A619A613B4600221A605A
:10081C005A609A60DA601A614FF48040FFF722FE4A
:10082C000420FFF71FFE1A4B3B6009237B60032358
:10083C00BB600023FB603B461946164800F007FBE3
:10084C00154B3B6004237B603B461946114800F076
:10085C00FEFA4FF4E1337B610023BB610023FB61A3
:10086C0000233B620C237B620023BB620023FB62F0
:10087C0007F114031946094800F0F8FC0748FFF784
:10088C0038FE0648FFF726FE00BF3037BD4680BD58
:10089C000200020400080140040004040038014076
:1008AC0080B586B000AF3B1D00221A605A609A607A
:1008BC00DA601A611020FFF7D5FD2020FFF7D2FD7A
:1008CC000420FFF7CFFD0820FFF7CCFD1349144897
:1008DC00FFF765FE42F220011248FFF760FE0F4B56
:1008EC007B600123BB600223FB6000233B613B1D4B
:1008FC0019460B4800F0ABFA42F220037B6001234F
:10090C00BB600223FB6000233B613B1D194605487D
:10091C0000F09DFA00BF1837BD4680BD20002004B2
:10092C0000100140000C014080B400AF0D4B9B69DE
:10093C000C4A43F0080393610B4B1B680A4A23F0E3
:10094C004C531360084B1B68074A43F088531360E1
:10095C00054B1B68044A43F04C43136000BFBD4673
:10096C0080BC704700100240000C014080B400AF06
:10097C00154BDB69144A43F40013D361134B5B68CA
:10098C00124A23F03F035360104B5B680F4A43F04D
:10099C00080353600D4B1B6A0C4A23F0FF031362D0
:1009AC000A4B1B6A094A43F009031362074B4FF4C5
:1009BC00C872DA61054B1B68044A43F001031360EB
:1009CC0000BFBD4680BC7047001002400054004080
:1009DC0080B500AF224B5B6903F00103002B04D000
:1009EC00204B1A781E4B1A6138E01D4B5B6903F0E3
:1009FC000203002B08D01A4B5B69194B9B691A4BED
:100A0C001A78174B1A6129E0154B5B6903F08003C8
:100A1C00002B23D0154B1A78154B1B789A420CD20D
:100A2C00144B1A68114B1B78591CC8B20F4908702B
:100A3C0013441A780A4B1A6110E0094B1B68084AD8
:100A4C0043F40073136042F220010B48FFF798FD4A
:100A5C00034B5B68024A23F4E063536000BF80BD24
:100A6C00005400407000002071000020790000202C
:100A7C007800002074000020000C014080B485B088
:100A8C0000AF3A601A460346FB710B46BB71134626
:100A9C007B710023FB600023FB7208E0FB680133D1
:100AAC00FB60FA68BB699A4201D900237CE0414B98
:100ABC005B6903F00203002BF0D13E4B1B683D4AEF
:100ACC0023F4006313603B4B1B683A4A43F4807376
:100ADC00136008E0FB680133FB60FA68BB699A425B
:100AEC0001D9002360E0334B5B6903F00103002B59
:100AFC00F0D00023FB602F4AFB79136108E0FB6800
:100B0C000133FB60FA68BB699A4201D900234BE0C0
:100B1C00284B5B6903F00203002BF0D00023FB6031
:100B2C00244B5B69234B9B69224ABB79136131E0EF
:100B3C00FB680133FB60FA68BB699A4201D9002358
:100B4C0032E01C4B5B6903F08003002BF0D00023D8
:100B5C00FB60FB7A3A6813441A78164B1A617B795E
:100B6C00013B7B71FB7A0133FB72124B5B6903F027
:100B7C000403002B0ED07B79002B0BD0FB7A3A6848
:100B8C0013441A780B4B1A617B79013B7B71FB7A0E
:100B9C000133FB727B79002BD3D1064B1B68054AC2
:100BAC0043F400731360012318461437BD4680BC10
:100BBC00704700BF0054004080B400AF00BFFDE799
:100BCC0080B400AF00BFFDE780B400AF00BFFDE70D
:100BDC0080B400AF00BFFDE780B400AF00BFFDE7FD
:100BEC0080B400AF00BFBD4680BC704780B400AF7E
:100BFC0000BFBD4680BC704780B400AF00BFBD468F
:100C0C0080BC704780B400AF00BFBD4680BC70474D
:100C1C0080B400AF00BFBD4680BC704780B586B0C5
:100C2C0000AF7860144A154BD31A7B617B693B612A
:100C3C00134B1B68002B02D1114B124A1A60104B3C
:100C4C001A687B6813443A699A4207D200F002FC96
:100C5C0003460C221A604FF0FF3309E0084B1B6867
:100C6C00FB60074B1A687B681344054A1360FB68EA
:100C7C0018461837BD4680BD005000200004000007
:100C8C007C000020C801002080B400AF00BFBD462E
:100C9C0080BC7047FFF7F8FF0B480C490C4A002347
:100CAC0002E0D458C4500433C4188C42F9D3094A16
:100CBC00094C002301E013600432A242FBD300F084
:100CCC00CFFBFFF7F3FC704700000020540000201E
:100CDC00041E000854000020C8010020FEE790B458
:100CEC0088B000AFF860B9607A60FB681A46BB68E0
:100CFC001B0E13441C462268BB687B617B6993FA0C
:100D0C00A3F33B613B69B3FA83F3DBB29B000F2186
:100D1C0001FA03F3DB431A40BB68FB61FB6993FAEE
:100D2C00A3F3BB61BB69B3FA83F3DBB29B007968B5
:100D3C0001FA03F31343236000BF2037BD4690BC78
:100D4C00704790B488B000AFF860B9607A60FB6807
:100D5C001A46BB681B0E13441C462268BB687B6199
:100D6C007B6993FAA3F33B613B69B3FA83F3DBB280
:100D7C009B00032101FA03F3DB431A40BB68FB61C0
:100D8C00FB6993FAA3F3BB61BB69B3FA83F3DBB2E0
:100D9C009B00796801FA03F31343236000BF2037EB
:100DAC00BD4690BC704790B488B000AFF860B96095
:100DBC007A60FB681A46BB681B0E13441C462268FB
:100DCC00BB687B617B6993FAA3F33B613B69B3FA24
:100DDC0083F3DBB29B00042101FA03F3DB431A40DB
:100DEC00BB68FB61FB6993FAA3F3BB61BB69B3FA04
:100DFC0083F3DBB29B00796801FA03F3134323609E
:100E0C0000BF2037BD4690BC704780B487B000AFA0
:100E1C00F860B9607A60FB68DA68BB681B0ADB4370
:100E2C001A40BB681B0A7B617B6993FAA3F33B6195
:100E3C003B69B3FA83F3DBB219467B688B401A43E8
:100E4C00FB68DA6000BF1C37BD4680BC704780B5BC
:100E5C0088B000AF786039603B681B681B021B0CC4
:100E6C007B617B693B613B6993FAA3F3FB60FB6895
:100E7C00B3FA83F3DBB2FB6144E00122FB699A40D5
:100E8C007B691340002B3AD0FB69072B06D840F244
:100E9C000112FB6902FA03F3BB6108E0FB69083B32
:100EAC004FF0011202FA03F343F08063BB613B681D
:100EBC005B68082B06D13B681B691A46B9697868D0
:100ECC00FFF7A3FF3B685B681A46B9697868FFF7C0
:100EDC0006FF3B685B68012B03D03B685B68092B02
:100EEC000DD13B689B681A46B9697868FFF729FFF2
:100EFC003B68DB681A46B9697868FFF754FFFB69F1
:100F0C000133FB617A69FB6922FA03F3002BB4D13C
:100F1C00002318462037BD4680BD000080B400AFCA
:100F2C00034B5B6803F00C031846BD4680BC70474E
:100F3C000010024080B400AF034B5B6803F0F00379
:100F4C001846BD4680BC70470010024080B400AF0C
:100F5C00034B5B6803F4E0631846BD4680BC7047E6
:100F6C000010024080B400AF034B5B6803F4605385
:100F7C001846BD4680BC70470010024080B400AFDC
:100F8C00034B5B6803F480331846BD4680BC704746
:100F9C000010024080B400AF034B5B6803F4701385
:100FAC001846BD4680BC70470010024080B400AFAC
:100FBC00044B5B685B0C03F001031846BD4680BC18
:100FCC00704700BF0010024080B582B000AF78605F
:100FDC0000F020F802467B681A607B681B68184694
:100FEC0000F03EF802467B685A607B685B681846E6
:100FFC0000F04CF802467B689A607B685B68184688
:10100C0000F058F802467B68DA6000BF0837BD462E
:10101C0080BD000080B582B000AF00237B60FFF77D
:10102C007DFF0346082B0CD0082B0ED8002B02D0CA
:10103C00042B03D009E0094B7B6009E0074B7B6074
:10104C0006E000F04BF8786002E0044B7B6000BFD8
:10105C007B6818460837BD4680BD00BF00127A0079
:10106C0080B582B000AF7860FFF764FF03461B09C0
:10107C0003F00F03044AD35C1A467B68D34018462E
:10108C000837BD4680BD00BFA81D000880B582B0E2
:10109C0000AF7860FFF75AFF03461B0A044AD35C83
:1010AC001A467B68D34018460837BD4680BD00BF42
:1010BC00B81D000880B582B000AF7860FFF752FF12
:1010CC000346DB0A044AD35C1A467B68D3401846B5
:1010DC000837BD4680BD00BFB81D000880B582B082
:1010EC0000AF00237B6000233B60FFF747FF3860B5
:1010FC003B68002B04D03B68B3F5803F03D00BE07A
:10110C000D4B7B600BE0FFF751FF034601330B4A9D
:10111C00B2FBF3F37B6002E0074B7B6000BFFFF791
:10112C0039FF03469B0C02337A6802FB03F3184623
:10113C000837BD4680BD00BF00093D0000127A0093
:10114C0080B483B000AF78607B68DB6803F4005335
:10115C00B3F5005F0CBF01230023DBB218460C373C
:10116C00BD4680BC704780B483B000AF78603960F6
:10117C007B681B6923F440523B681A437B681A61F5
:10118C0000BF0C37BD4680BC704780B483B000AF45
:10119C00786039607B685B6923F440723B681A4362
:1011AC007B685A6100BF0C37BD4680BC704700009D
:1011BC0080B485B000AFF860B9607A60BA68134645
:1011CC009B0013449A001A447B689B00B2FBF3F318
:1011DC00254AA2FB03235B099BB21B0199B2BA6897
:1011EC0013469B0013449A001A447B689B00B2FB85
:1011FC00F3F21D4BA3FB02035B09642000FB03F31A
:10120C00D31A1B013233184AA2FB03235B099BB28E
:10121C0003F0F0039BB20B4499B2BA6813469B00DF
:10122C0013449A001A447B689B00B2FBF3F20E4BFA
:10123C00A3FB02035B09642000FB03F3D31A1B011D
:10124C003233094AA2FB03235B099BB203F00F0361
:10125C009BB20B449BB21A46FB689A6000BF1437D2
:10126C00BD4680BC704700BF1F85EB5180B588B070
:10127C0000AF786039600123FB770023BB6178688D
:10128C00FFF75EFF0346002B45D17B68DB6823F438
:10129C00B05323F00C033A6851683A68D268114392
:1012AC003A6812690A431A437B68DA603B689B68A8
:1012BC0019467868FFF757FF3B685B6919467868F1
:1012CC00FFF763FF07F108031846FFF77DFE7B6805
:1012DC00134A934202D17B69BB610CE07B68114AD3
:1012EC00934202D13B69BB6105E07B680E4A934295
:1012FC0001D13B69BB61BB69002B0CD03B681B68FF
:10130C00002B08D00023FB773B681B681A46B96991
:10131C007868FFF74DFFFB7F18462037BD4680BD30
:10132C0000380140004400400048004080B483B0C5
:10133C0000AF786039607A683B68B2FBF3F3074A18
:10134C00013B5360054B00229A60044B05221A6046
:10135C0000BF0C37BD4680BC704700BF10E000E0FA
:10136C0080B582B000AF78604FF47A717868FFF77F
:10137C00DDFF00BF0837BD4680BD000080B485B0DE
:10138C0000AF78600E4B1B68FB60FB687B68B3F1A9
:10139C00FF3F0CD07B6801337B6008E0084B1B6877
:1013AC0003F48033002B02D07B68013B7B607B68AD
:1013BC00002BF3D100BF00BF1437BD4680BC704773
:1013CC0010E000E080B483B000AF7860034A7B6823
:1013DC00136000BF0C37BD4680BC70470000002076
:1013EC0030B51446002C05461A469BB005DA8B2303
:1013FC0003604FF0FF301BB030BD4FF40273ADF8FB
:10140C000C300CBF234604F1FF33029305934FF6C7
:10141C00FF7300910491ADF80E3069461E9B00F0ED
:10142C0097F9431CBCBF8B232B60002CE3D000220C
:10143C00009B1A70DFE7000007B5009313460A46BD
:10144C00014603480068FFF7CBFF03B05DF804FBCF
:10145C0004000020014B1868704700BF04000020F6
:10146C0070B500260C4D0D4C641BA410A64209D17E
:10147C0000F078FC00260A4D0A4C641BA410A6420E
:10148C0005D170BD55F8043B98470136EEE755F889
:10149C00043B98470136F2E7FC1D0008FC1D0008D0
:1014AC00FC1D0008001E00087047704738B5054643
:1014BC00002940D051F8043C0C1F002BB8BFE41895
:1014CC0000F0DEF81C4A136833B9636014602846D8
:1014DC00BDE8384000F0DAB8A34208D920682118DA
:1014EC008B4201BF19685B6809182160EDE71A4649
:1014FC005B680BB1A342FAD911685018A0420BD10A
:10150C0020680144501883421160E0D118685B6870
:10151C00084410605360DAE702D90C232B60D6E73D
:10152C00206821188B4201BF19685B68091821607B
:10153C0063605460CBE738BDC401002070B50F4E1A
:10154C000C463168054611B900F0AAFB3060214603
:10155C00284600F0A5FB431C03D14FF0FF34204676
:10156C0070BDC41C24F00304A042F8D0211A2846F4
:10157C0000F096FB0130F2D1EFE700BFC001002074
:10158C002DE9F843CD1C25F0030508350C2D38BF8B
:10159C000C25002D064601DBA94204D90C2333602F
:1015AC000020BDE8F883DFF8D48000F069F8D8F8A3
:1015BC0000301C4644BB29463046FFF7BFFF431C96
:1015CC00044658D1D8F800402746002F43D1002CB0
:1015DC004BD023683946304604EB030900F060FB1E
:1015EC00814542D1216830466D1A2946FFF7A6FF86
:1015FC0001303AD023682B442360D8F800305A6865
:10160C0062BBC8F800700FE02268521B20D40B2A72
:10161C0017D96119A342256018BF5960636808BFC8
:10162C00C8F8001062514B60304600F02FF804F1FE
:10163C000B00231D20F00700C21A1CBF1B1AA3505D
:10164C00AFE76268A3420CBFC8F800205A60EBE712
:10165C0023466468AEE73C467F68B6E71A465B688B
:10166C00A342FBD100235360DEE70C2330463360EA
:10167C0000F00CF894E70560D6E700BFC401002029
:10168C000148FFF711BF00BFBC0100200148FFF764
:10169C000CBF00BFBC0100202DE9F0471F468E682F
:1016AC008246BE420C4690460B682DD8B1F90C20F0
:1016BC0012F4906F26D06569096905EB4505A3EB1B
:1016CC00010905EBD5757B1C4B446D109D4238BF51
:1016DC001D46530527D52946FFF752FF064660B332
:1016EC004A46216900F0FAFAA38923F4906343F087
:1016FC008003A38126614E4426603E466561A5EBBE
:10170C000905A560BE4200D93E46324641462068D6
:10171C0000F0ACFA0020A3689B1BA3602368334441
:10172C002360BDE8F0872A4600F0E6FA064600285A
:10173C00E0D150462169FFF7B9FE0C23CAF80030FE
:10174C00A3894FF0FF3043F04003A381E9E7000089
:10175C002DE9F04F98468B8907461B060D4614461B
:10176C009DB010D50B6973B94021FFF709FF2860B4
:10177C00286130B90C233B604FF0FF301DB0BDE841
:10178C00F08F40236B610023099320238DF82930BF
:10179C0030234FF00109CDF80C80DFF898818DF8DB
:1017AC002A3023469A4613F8012B0AB1252AF9D17F
:1017BC00BAEB040B0BD05B46224629463846FFF7A2
:1017CC006BFF013000F0A780099A5A4409929AF8ED
:1017DC000030002B00F09F8000234FF0FF32CDE94A
:1017EC0005230AF1010A049307938DF853301A93D9
:1017FC005446052214F8011B4E4800F061FA049A75
:10180C00D8B9D00644BF20238DF85330110744BFFC
:10181C002B238DF853309AF800302A2B15D05446D0
:10182C0000204FF00A0C079A214611F8013B303B7F
:10183C00092B4BD9B0B1079214E0A0EB080309FABD
:10184C0003F31343A2460493D2E7039B191D1B68B1
:10185C000391002BBBBF5B4242F00202079307933C
:10186C00B8BF049223782E2B0AD163782A2B32D15D
:10187C00039B02341A1D1B68039243EAE37305931E
:10188C00DFF8B4A003225046217800F019FA38B1E1
:10189C004022049BA0EB0A008240134301340493C2
:1018AC0014F8011B062225488DF8281000F008FAC0
:1018BC00002836D0224B1BBB039B073323F00703B6
:1018CC0008330393099B334409936AE70C460120C0
:1018DC000CFB0232A8E700234FF00A0C1946013426
:1018EC000593204610F8012B303A092A03D9002B16
:1018FC00C6D00591C4E7044601230CFB0121F0E797
:10190C0003AB00932A4638460E4B04A9AFF3008074
:10191C00421C0646D6D1AB895B063FF52DAF099824
:10192C002CE703AB00932A463846064B04A900F07B
:10193C007DF8EDE7C01D0008C61D0008CA1D000893
:10194C0000000000A51600082DE9F0471646984641
:10195C008A680B6907469342B8BF1346336091F807
:10196C0043200C46DDF820900AB101333360236824
:10197C00990642BF336802333360256815F00605BB
:10198C0006D104F1190AE36832689B1AAB422BDCCE
:10199C0094F843302268003B18BF0123920630D4E0
:1019AC004146384604F14302C847013023D023682E
:1019BC00226903F00603042B14BF002533684FF093
:1019CC00000608BFE56804F11A0408BFED1A54F8C4
:1019DC00123C08BF25EAE5759342C4BF9B1AED186B
:1019EC00B5421AD1002008E0012352464146384640
:1019FC00C847013003D14FF0FF30BDE8F087013507
:101A0C00C1E73020E11881F843005A1C94F84510C6
:101A1C002244023382F84310C2E701232246414696
:101A2C003846C8470130E6D00136D9E72DE9FF47E3
:101A3C000F7E9146782F80460C469A460C9E01F1FB
:101A4C00430207D8622F0AD8002F00F0D380582FFA
:101A5C0000F0BA8004F1420684F842703AE0A7F133
:101A6C006303152BF6D801A151F823F0D11A000805
:101A7C00E51A0008611A0008611A0008611A0008CA
:101A8C00611A0008E51A0008611A0008611A0008BA
:101A9C00611A0008611A0008E71B00080F1B0008F8
:101AAC00A11B0008611A0008611A0008091C000833
:101ABC00611A00080F1B0008611A0008611A00085F
:101ACC00A91B000833681A1D1B68326004F142061A
:101ADC0084F8423001239EE033682068191D316080
:101AEC00060601D51D6803E04506FBD5B3F9005089
:101AFC00002D03DA2D236D4284F843300A23594814
:101B0C0011E021683368080653F8045B02D44906D7
:101B1C0048BFADB26F2F336014BF0A23082351485E
:101B2C00002184F843106668002EA8BF2168A660C7
:101B3C00A4BF21F0040121600DB9002E4BD0164634
:101B4C00B5FBF3F103FB1157C75D06F8017D2F467A
:101B5C00BB420D46F4D9082B0BD12368DF0708D5FF
:101B6C00236961689942DEBF302306F8013C06F117
:101B7C00FF36921B22614B4621464046CDF800A011
:101B8C0003AAFFF7E1FE01304AD14FF0FF3004B059
:101B9C00BDE8F087236843F02003236078273248A0
:101BAC0084F84570236831681F0651F8045B02D431
:101BBC005F0648BFADB23160D90744BF43F0200384
:101BCC0023601DB11023ABE72648E9E7236823F017
:101BDC0020032360F6E71646BDE733682568181D19
:101BEC00616930602E061B6801D5196002E0680639
:101BFC00FBD51980002316462361BCE7336800210E
:101C0C001A1D32601E686268304600F059F808B13F
:101C1C00801B606063682361002384F84330AAE76B
:101C2C003246494640462369D0470130ADD023683F
:101C3C009B0713D4E068039B9842B8BF1846A6E7ED
:101C4C000123324649464046D04701309DD00135EC
:101C5C00E36803995B1AAB42F2DCEBE7002504F175
:101C6C001906F5E7D11D0008E21D0008884210B5E1
:101C7C0001EB020402D98442234607D8431EA14239
:101C8C0008D011F8012B03F8012FF8E701460244A4
:101C9C008A4200D110BD13F8014D02F8014DF7E74F
:101CAC0038B50023054D044608462B60FEF7B6FFF9
:101CBC00431C02D12B6803B1236038BDB80100204E
:101CCC00034610B5C9B202449342184601D1002014
:101CDC0003E0047801338C42F6D110BD0A449142E2
:101CEC0000F1FF3300D1704710B511F8014B914250
:101CFC0003F8014FF9D110BD2DE9F041804615468E
:101D0C000C4621B91146BDE8F041FFF739BC2AB9A0
:101D1C00FFF7CCFB00242046BDE8F08100F01AF858
:101D2C008542064602D8B5EB500FF4D829464046FA
:101D3C00FFF726FC07460028ECD0B5422A46214680
:101D4C0028BF3246FFF7CAFF21464046FFF7AEFBDD
:101D5C003C46E0E751F8043C181F002BBCBF0B5865
:101D6C00C0187047F8B500BFF8BC08BC9E46704759
:0C1D7C00F8B500BFF8BC08BC9E467047DC
:101D88006D61737465720D0A00000000636F756EF3
:101D9800743D25640D0A00000801020304050607C6
:101DA8000000000000000000010203040607080903
:101DB8000000000001020304232D302B2000686C72
:101DC8004C00656667454647003031323334353656
:101DD800373839414243444546003031323334358F
:0C1DE800363738396162636465660000BC
:081DF40058E3FF7F010000002D
:041DFC0031010008A9
:041E00000D010008C8
:101E04000024F400080000200000000080000020EE
:101E1400E800002050010020000000000000000045
:101E240000000000000000000000000000000000AE
:101E3400000000000000000000000000000000009E
:101E4400000000000000000000000000000000008E
:041E5400000000008A
:0400000508000CA142
:00000001FF
