:020000040800F2
:1000000000500020FD0B00088D0B0008950B000828
:100010009D0B0008A50B0008AD0B000800000000B8
:10002000000000000000000000000000B50B000808
:10003000C10B000800000000CD0B0008D90B000820
:10004000450C0008450C0008450C0008450C00084C
:10005000450C0008450C0008450C0008450C00083C
:10006000450C0008450C0008450C0008450C00082C
:10007000450C0008450C0008450C0008450C00081C
:10008000450C0008450C0008450C0008450C00080C
:10009000450C0008450C0008450C0008450C0008FC
:1000A000450C0008450C0008450C0008450C0008EC
:1000B000450C0008450C0008450C00089109000893
:1000C000E50B0008450C0008450C0008450C00082D
:1000D000450C0008450C0008450C0008450C0008BC
:1000E000450C0008450C0008450C00080000000005
:1000F0000000000000000000000000000000000000
:0C01000000000000000000005FF808F1A3
:10010C0010B5054C237833B9044B13B10448AFF345
:10011C0000800123237010BD0400002000000000AB
:10012C009013000808B5034B1BB103490348AFF308
:10013C00008008BD0000000008000020901300089B
:10014C00034613F8012B002AFBD1181A013870470B
:10015C0080B485B000AF78607B6803F00703FB6068
:10016C000C4BDB68BB60BA684FF6FF031340BB60F7
:10017C00FB681A02BB68134343F0BF6343F40033BC
:10018C00BB60044ABB68D36000BF1437BD4680BC5B
:10019C00704700BF00ED00E080B400AF044BDB689B
:1001AC001B0A03F007031846BD4680BC704700BF0E
:1001BC0000ED00E080B483B000AF0346FB7197F90B
:1001CC000730002B0BDBFB7903F01F02064997F974
:1001DC0007305B09012000FA02F241F8232000BF2E
:1001EC000C37BD4680BC704700E100E080B483B0A2
:1001FC0000AF03463960FB7197F90730002B0ADB1F
:10020C003B68DAB20C4997F907301201D2B20B44B1
:10021C0083F800230AE03B68DAB20849FB7903F063
:10022C000F03043B1201D2B20B441A7600BF0C37F9
:10023C00BD4680BC704700BF00E100E000ED00E06F
:10024C0080B489B000AFF860B9607A60FB6803F0E5
:10025C000703FB61FB69C3F10703042B28BF0423CD
:10026C00BB61FB690433062B02D9FB69033B00E03D
:10027C0000237B614FF0FF32BB6902FA03F3DA43D0
:10028C00BB681A407B699A404FF0FF317B6901FAD9
:10029C0003F3D9437B680B40134318462437BD4600
:1002AC0080BC704780B400AF044B1B68034A43F01A
:1002BC000103136000BFBD4680BC704700100240B4
:1002CC0080B400AF064B1B6803F00203022B0CBF7B
:1002DC0001230023DBB21846BD4680BC704700BF2B
:1002EC000010024080B483B000AF7860064B1B68EE
:1002FC0023F0F8027B68DB00034913430B6000BF5B
:10030C000C37BD4680BC70470010024080B483B0EF
:10031C0000AF7860064B5B6823F0030204497B68EE
:10032C0013434B6000BF0C37BD4680BC704700BF09
:10033C000010024080B400AF034B5B6803F00C0369
:10034C001846BD4680BC70470010024080B483B094
:10035C0000AF7860064B5B6823F0F00204497B68C1
:10036C0013434B6000BF0C37BD4680BC704700BFC9
:10037C000010024080B483B000AF7860064B5B681D
:10038C0023F4E06204497B6813434B6000BF0C37D5
:10039C00BD4680BC704700BF0010024080B483B0E3
:1003AC0000AF7860064B5B6823F4605204497B68AD
:1003BC0013434B6000BF0C37BD4680BC704700BF79
:1003CC000010024080B400AF044B1B68034A43F09A
:1003DC008073136000BFBD4680BC704700100240A4
:1003EC0080B400AF064B1B6803F00073B3F1007FC1
:1003FC000CBF01230023DBB21846BD4680BC7047FE
:10040C000010024080B483B000AF78603960084BB4
:10041C005B6823F47C127B6803F440313B680B432C
:10042C00034913434B6000BF0C37BD4680BC70477B
:10043C000010024080B485B000AF7860084BDA69D8
:10044C0007497B681343CB61054BDA697B68134022
:10045C00FB60FB6800BF1437BD4680BC704700BF13
:10046C000010024080B485B000AF7860084B9A69E8
:10047C0007497B6813438B61054B9A697B68134072
:10048C00FB60FB6800BF1437BD4680BC704700BFE3
:10049C000010024080B483B000AF7860064B1B683C
:1004AC0023F0070204497B6813430B6000BF0C3731
:1004BC00BD4680BC704700BF0020024080B400AF36
:1004CC00034B1B6803F007031846BD4680BC7047FE
:1004DC000020024080B483B000AF78607B68DB689A
:1004EC0043F400527B68DA6000BF0C37BD4680BC19
:1004FC00704780B483B000AF78607B681B6923F4CD
:10050C0090427B681A617B685B6923F02A027B68E6
:10051C005A6100BF0C37BD4680BC704780B483B0B5
:10052C0000AF78607B681B6803F04003402B0CBF66
:10053C0001230023DBB218460C37BD4680BC704744
:10054C0080B483B000AF78607B681B6803F08003D5
:10055C00802B0CBF01230023DBB218460C37BD46A1
:10056C0080BC704780B483B000AF78600B46FB70E2
:10057C00FA787B685A6000BF0C37BD4680BC704768
:10058C0080B483B000AF786039603B681B0A9AB2C4
:10059C007B681A6100BF0C37BD4680BC704780B4C5
:1005AC0083B000AF786039603B681B0A9AB27B68F5
:1005BC005A6100BF0C37BD4680BC704780B485B013
:1005CC0000AF786039607B68DB68FB603B681B0AB6
:1005DC009BB2BB60FA68BB6813401A04FB68D94332
:1005EC00BB680B401A437B681A6100BF1437BD46C9
:1005FC0080BC704780B400AF054B5B6823F0E063B0
:10060C00034A43F00073536000BFBD4680BC704783
:10061C000000014080B584B000AF78607868FFF7C7
:10062C008FFDB8600023FB6011E000BF1048FFF79E
:10063C0087FF0346002BF9D07A68FB6813441B78BC
:10064C0019460B48FFF78EFFFB680133FB60FA6815
:10065C00BB689A42E9D300BF0548FFF75FFF03462A
:10066C00002BF9D000BF00BF1037BD4680BD00BFC6
:10067C000038014080B582B000AF0120FFF7F2FED8
:10068C004FF08050FFF7D6FE0320FFF761FDFFF718
:10069C0083FD034600220F211846FFF7D1FD0346C8
:1006AC0019464FF0FF30FFF7A1FDFFF7A3FF00F055
:1006BC003BF800F0CFF800F075F800F00FF900F0FF
:1006CC002FF915491548FFF76AFF1F20FFF772FD38
:1006DC002020FFF76FFD124A3B4692E8030083E8A7
:1006EC0003001048FFF796FF42F2107000F0F4FD83
:1006FC0039464FF47A730822AA2000F099F9034680
:10070C00002B03D004490548FFF758FF41F288300D
:10071C0000F0E2FDECE700BF2000200400100140D7
:10072C00B4130008A813000880B500AF0020FFF731
:10073C00B1FE00BFFFF7C2FE0346002BFAD110201A
:10074C00FFF7D0FDFFF7AEFD00BFFFF7B9FD034685
:10075C00012BFAD100210020FFF754FEFFF732FEE7
:10076C0000BFFFF73DFE0346012BFAD10020FFF737
:10077C00EDFD0020FFF7FEFD0020FFF70FFE02202D
:10078C00FFF7C4FD00BFFFF7D5FD0346082BFAD1D8
:10079C00034800F093FD024800F0C2FD00BF80BD8D
:1007AC0000127A0080B58CB000AF07F11403002260
:1007BC001A605A609A60DA601A615A619A613B4613
:1007CC0000221A605A609A60DA601A614FF4804015
:1007DC00FFF748FE0420FFF745FE1A4B3B60092348
:1007EC007B600323BB600023FB603B461946164825
:1007FC0000F0DBFA154B3B6004237B603B4619464B
:10080C00114800F0D2FA4FF4E1337B610023BB6155
:10081C000023FB6100233B620C237B620023BB6241
:10082C000023FB6207F114031946094800F0CCFCC5
:10083C000748FFF75EFE0648FFF74CFE00BF303757
:10084C00BD4680BD020002040008014004000404FF
:10085C000038014080B586B000AF3B1D00221A6005
:10086C005A609A60DA601A611020FFF7FBFD2020B5
:10087C00FFF7F8FD0420FFF7F5FD0820FFF7F2FD68
:10088C0013491448FFF78BFE42F220011248FFF780
:10089C0086FE0F4B7B600123BB600223FB600023B1
:1008AC003B613B1D19460B4800F07FFA42F22003D6
:1008BC007B600123BB600223FB6000233B613B1D7B
:1008CC001946054800F071FA00BF1837BD4680BDC7
:1008DC002000200400100140000C014080B400AF47
:1008EC000D4B9B690C4A43F0080393610B4B1B683F
:1008FC000A4A23F04C531360084B1B68074A43F019
:10090C0088531360054B1B68044A43F04C43136037
:10091C0000BFBD4680BC704700100240000C014077
:10092C0080B400AF154BDB69144A43F40013D36158
:10093C00134B5B68124A23F03F035360104B5B6808
:10094C000F4A43F0080353600D4B1B6A0C4A23F00B
:10095C00FF0313620A4B1B6A094A43F00903136233
:10096C00074B4FF4C872DA61054B1B68044A43F01D
:10097C000103136000BFBD4680BC704700100240ED
:10098C000054004080B500AF224B5B6903F00103BB
:10099C00002B04D0204B1A781E4B1A6138E01D4BEB
:1009AC005B6903F00203002B08D01A4B5B69194BEF
:1009BC009B691A4B1A78174B1A6129E0154B5B6926
:1009CC0003F08003002B23D0154B1A78154B1B78A2
:1009DC009A420CD2144B1A68114B1B78591CC8B292
:1009EC000F49087013441A780A4B1A6110E0094B2E
:1009FC001B68084A43F40073136042F220010B4851
:100A0C00FFF7BEFD034B5B68024A23F4E0635360BF
:100A1C0000BF80BD005400402000002021000020B9
:100A2C00290000202800002024000020000C014098
:100A3C0080B487B000AFB9607B600346FB7313468C
:100A4C00BB7300237B610023FB7408E07B690133DB
:100A5C007B617A697B689A4201D9002389E0474B14
:100A6C009B6903F00203002BF0D1444B1B68434AF3
:100A7C0023F400631360414B1B68404A43F48073BA
:100A8C00136008E07B6901337B617A697B689A4269
:100A9C0001D900236DE0394B5B6903F00103002B96
:100AAC00F0D000237B61354AFB7B136108E07B6946
:100ABC0001337B617A697B689A4201D9002358E043
:100ACC002E4B5B6903F00203002BF0D000237B61FB
:100ADC002A4B5B69294B9B6931E07B6901337B6154
:100AEC007A697B689A4201D9002342E0234B5B6907
:100AFC0003F08003002BF0D000237B61FB7CBA68F1
:100B0C0013441A781D4B1A61FB7C0133FB74BB7BBD
:100B1C00013BBB73BB7B002B11D0184B5B6903F003
:100B2C000403002B0BD0FB7CBA6813441A78134BCC
:100B3C001A61FB7C0133FB74BB7B013BBB73BB7B3E
:100B4C00002BD3D108E07B6901337B617A697B6828
:100B5C009A4201D900230CE0084B5B6903F00403B3
:100B6C00002BF0D0054B1B68044A43F40073136050
:100B7C00012318461C37BD4680BC7047005400400A
:100B8C0080B400AF00BFFDE780B400AF00BFFDE74D
:100B9C0080B400AF00BFFDE780B400AF00BFFDE73D
:100BAC0080B400AF00BFFDE780B400AF00BFBD460E
:100BBC0080BC704780B400AF00BFBD4680BC70479E
:100BCC0080B400AF00BFBD4680BC704780B400AF9E
:100BDC0000BFBD4680BC704780B400AF00BFBD46AF
:100BEC0080BC704780B400AF00BFBD4680BC70476E
:100BFC00FFF7F8FF0B480C490C4A002302E0D458CD
:100C0C00C4500433C4188C42F9D3094A094C00234C
:100C1C0001E013600432A242FBD300F08FFBFFF71C
:100C2C0029FD70470000002004000020E413000898
:100C3C00040000202C000020FEE790B488B000AF28
:100C4C00F860B9607A60FB681A46BB681B0E1344E7
:100C5C001C462268BB687B617B6993FAA3F33B61FA
:100C6C003B69B3FA83F3DBB29B000F2101FA03F368
:100C7C00DB431A40BB68FB61FB6993FAA3F3BB61CE
:100C8C00BB69B3FA83F3DBB29B00796801FA03F317
:100C9C001343236000BF2037BD4690BC704790B40F
:100CAC0088B000AFF860B9607A60FB681A46BB6820
:100CBC001B0E13441C462268BB687B617B6993FA4C
:100CCC00A3F33B613B69B3FA83F3DBB29B000321D3
:100CDC0001FA03F3DB431A40BB68FB61FB6993FA2F
:100CEC00A3F3BB61BB69B3FA83F3DBB29B007968F6
:100CFC0001FA03F31343236000BF2037BD4690BCB9
:100D0C00704790B488B000AFF860B9607A60FB6847
:100D1C001A46BB681B0E13441C462268BB687B61D9
:100D2C007B6993FAA3F33B613B69B3FA83F3DBB2C0
:100D3C009B00042101FA03F3DB431A40BB68FB61FF
:100D4C00FB6993FAA3F3BB61BB69B3FA83F3DBB220
:100D5C009B00796801FA03F31343236000BF20372B
:100D6C00BD4690BC704780B487B000AFF860B960E6
:100D7C007A60FB68DA68BB681B0ADB431A40BB6805
:100D8C001B0A7B617B6993FAA3F33B613B69B3FA62
:100D9C0083F3DBB219467B688B401A43FB68DA603D
:100DAC0000BF1C37BD4680BC704780B588B000AF13
:100DBC00786039603B681B681B021B0C7B617B698C
:100DCC003B613B6993FAA3F3FB60FB68B3FA83F3D3
:100DDC00DBB2FB6144E00122FB699A407B69134062
:100DEC00002B3AD0FB69072B06D840F20112FB69A5
:100DFC0002FA03F3BB6108E0FB69083B4FF00112F8
:100E0C0002FA03F343F08063BB613B685B68082B19
:100E1C0006D13B681B691A46B9697868FFF7A3FFCE
:100E2C003B685B681A46B9697868FFF706FF3B6850
:100E3C005B68012B03D03B685B68092B0DD13B68C9
:100E4C009B681A46B9697868FFF729FF3B68DB682D
:100E5C001A46B9697868FFF754FFFB690133FB61E7
:100E6C007A69FB6922FA03F3002BB4D100231846EC
:100E7C002037BD4680BD000080B400AF034B5B68DB
:100E8C0003F00C031846BD4680BC704700100240AE
:100E9C0080B400AF034B5B6803F0F0031846BD460B
:100EAC0080BC70470010024080B400AF034B5B68FD
:100EBC0003F4E0631846BD4680BC70470010024046
:100ECC0080B400AF034B5B6803F460531846BD4617
:100EDC0080BC70470010024080B400AF034B5B68CD
:100EEC0003F480331846BD4680BC704700100240A6
:100EFC0080B400AF034B5B6803F470131846BD4617
:100F0C0080BC70470010024080B400AF044B5B689B
:100F1C005B0C03F001031846BD4680BC704700BF54
:100F2C000010024080B582B000AF786000F020F86D
:100F3C0002467B681A607B681B68184600F03EF816
:100F4C0002467B685A607B685B68184600F04CF878
:100F5C0002467B689A607B685B68184600F058F81C
:100F6C0002467B68DA6000BF0837BD4680BD0000D2
:100F7C0080B582B000AF00237B60FFF77DFF034696
:100F8C00082B0CD0082B0ED8002B02D0042B03D02E
:100F9C0009E0094B7B6009E0074B7B6006E000F041
:100FAC004BF8786002E0044B7B6000BF7B6818460E
:100FBC000837BD4680BD00BF00127A0080B582B0F4
:100FCC0000AF7860FFF764FF03461B0903F00F03C3
:100FDC00044AD35C1A467B68D34018460837BD4692
:100FEC0080BD00BFBC13000880B582B000AF786034
:100FFC00FFF75AFF03461B0A044AD35C1A467B6868
:10100C00D34018460837BD4680BD00BFCC1300083E
:10101C0080B582B000AF7860FFF752FF0346DB0A61
:10102C00044AD35C1A467B68D34018460837BD4641
:10103C0080BD00BFCC13000880B582B000AF002388
:10104C007B6000233B60FFF747FF38603B68002B59
:10105C0004D03B68B3F5803F03D00BE00D4B7B60B5
:10106C000BE0FFF751FF034601330B4AB2FBF3F3DE
:10107C007B6002E0074B7B6000BFFFF739FF034644
:10108C009B0C02337A6802FB03F318460837BD4603
:10109C0080BD00BF00093D0000127A0080B483B00F
:1010AC0000AF78607B68DB6803F40053B3F5005F36
:1010BC000CBF01230023DBB218460C37BD4680BCA5
:1010CC00704780B483B000AF786039607B681B696F
:1010DC0023F440523B681A437B681A6100BF0C37FB
:1010EC00BD4680BC704780B483B000AF7860396077
:1010FC007B685B6923F440723B681A437B685A61D6
:10110C0000BF0C37BD4680BC7047000080B485B072
:10111C0000AFF860B9607A60BA6813469B0013445C
:10112C009A001A447B689B00B2FBF3F3254AA2FB9E
:10113C0003235B099BB21B0199B2BA6813469B004F
:10114C0013449A001A447B689B00B2FBF3F21D4BCC
:10115C00A3FB02035B09642000FB03F3D31A1B01FE
:10116C003233184AA2FB03235B099BB203F0F00352
:10117C009BB20B4499B2BA6813469B0013449A0075
:10118C001A447B689B00B2FBF3F20E4BA3FB0203E9
:10119C005B09642000FB03F3D31A1B013233094AA9
:1011AC00A2FB03235B099BB203F00F039BB20B441E
:1011BC009BB21A46FB689A6000BF1437BD4680BCD0
:1011CC00704700BF1F85EB5180B588B000AF7860C9
:1011DC0039600123FB770023BB617868FFF75EFF62
:1011EC000346002B45D17B68DB6823F4B05323F016
:1011FC000C033A6851683A68D26811433A6812692C
:10120C000A431A437B68DA603B689B681946786826
:10121C00FFF757FF3B685B6919467868FFF763FF78
:10122C0007F108031846FFF77DFE7B68134A9342CB
:10123C0002D17B69BB610CE07B68114A934202D1FD
:10124C003B69BB6105E07B680E4A934201D13B6967
:10125C00BB61BB69002B0CD03B681B68002B08D012
:10126C000023FB773B681B681A46B9697868FFF75F
:10127C004DFFFB7F18462037BD4680BD003801402E
:10128C00004400400048004080B483B000AF786058
:10129C0039607A683B68B2FBF3F3074A013B536051
:1012AC00054B00229A60044B05221A6000BF0C37D4
:1012BC00BD4680BC704700BF10E000E080B582B036
:1012CC0000AF78604FF47A717868FFF7DDFF00BFEC
:1012DC000837BD4680BD000080B485B000AF786093
:1012EC000E4B1B68FB60FB687B68B3F1FF3F0CD0B7
:1012FC007B6801337B6008E0084B1B6803F4803388
:10130C00002B02D07B68013B7B607B68002BF3D108
:10131C0000BF00BF1437BD4680BC704710E000E032
:10132C0080B483B000AF7860034A7B68136000BF61
:10133C000C37BD4680BC70470000002070B50026FD
:10134C000C4D0D4C641BA410A64209D100F01AF8E8
:10135C0000260A4D0A4C641BA410A64205D170BD90
:10136C0055F8043B98470136EEE755F8043B98478F
:10137C000136F2E7DC130008DC130008DC1300086C
:10138C00E0130008F8B500BFF8BC08BC9E467047D7
:0C139C00F8B500BFF8BC08BC9E467047C6
:1013A8006D61737465720D0A000000008331224379
:1013B8009475769700000000000000000102030405
:0C13C800060708090000000001020304F1
:0813D40078EDFF7F010000002D
:0413DC0031010008D3
:0413E0000D010008F3
:0413E4000024F400ED
:0400000508000BFDE7
:00000001FF
